:100000000C9495070C9477210C9450210C94BD0707
:100010000C94BD070C94BD070C94BD070C949E2155
:100020000C94BD070C94BD070C94BD070C94BD0740
:100030000C94BD070C94BD070C94BD070C94BD0730
:100040000C9406210C94BD070C9420220C94FA21E8
:100050000C94BD070C94BD070C94BD070C94BD0710
:100060000C9452220C94BD0708000000BE92244953
:10007000123EABAAAA2ABECDCCCC4C3E00000080DA
:10008000BEABAAAAAA3E00000000BF000000803F4D
:100090000000000000084178D3BB4387D1133D190D
:1000A0000E3CC3BD4282AD2B3E68EC8276BED98F3A
:1000B000E1A93E4C80EFFFBE01C4FF7F3F0000007E
:1000C00000004D616E75616C004175746F004100F8
:1000D00050756C73653A00570053797374656D20E1
:1000E0004D65737361676500454550524F4D205211
:1000F0006573657400454550524F4D2046756C6CD4
:1001000020526573657400000103070F1F3F7F00D5
:1001100080C0E0F0F8FCFE00000000003E5B4F5B9A
:100120003E3E6B4F6B3E1C3E7C3E1C183C7E3C189A
:100130001C577D571C1C5E7F5E1C00183C1800FF7E
:10014000E7C3E7FF0018241800FFE7DBE7FF3048AC
:100150003A060E2629792926407F050507407F05A6
:10016000253F5A3CE73C5A7F3E1C1C08081C1C3E9D
:100170007F14227F22145F5F005F5F06097F017F8B
:10018000006689956A606060606094A2FFA294082E
:10019000047E040810207E201008082A1C08081C71
:1001A0002A08081E101010100C1E0C1E0C30383EB1
:1001B0003830060E3E0E06000000000000005F0012
:1001C000000007000700147F147F14242A7F2A12DE
:1001D00023130864623649562050000807030000C4
:1001E0001C2241000041221C002A1C7F1C2A0808F6
:1001F0003E08080080703000080808080800006009
:10020000600020100804023E5149453E00427F40F4
:100210000072494949462141494D331814127F1053
:1002200027454545393C4A4949314121110907369D
:1002300049494936464949291E000014000000403A
:100240003400000008142241141414141400412234
:10025000140802015909063E415D594E7C121112E3
:100260007C7F494949363E414141227F4141413EDF
:100270007F494949417F090909013E414151737F45
:100280000808087F00417F41002040413F017F086E
:100290001422417F404040407F021C027F7F0408BF
:1002A000107F3E4141413E7F090909063E415121EF
:1002B0005E7F09192946264949493203017F010316
:1002C0003F4040403F1F2040201F3F4038403F6399
:1002D0001408146303047804036159494D43007FF3
:1002E0004141410204081020004141417F040201C4
:1002F0000204404040404000030708002054547866
:10030000407F284444383844444428384444287FB3
:10031000385454541800087E090218A4A49C787F0D
:100320000804047800447D40002040403D007F10D8
:1003300028440000417F40007C047804787C080455
:1003400004783844444438FC182424181824241809
:10035000FC7C08040408485454542404043F4424F6
:100360003C4040207C1C2040201C3C4030403C4411
:10037000281028444C9090907C4464544C440008CD
:1003800036410000007700000041360800020102FB
:1003900004023C2623263C1EA1A161123A404020C3
:1003A0007A3854545559215555794122545478423C
:1003B000215554784020545579400C1E5272123900
:1003C00055555559395454545939555454580000B9
:1003D000457C410002457D420001457C407D121173
:1003E000127DF0282528F07C545545002054547C7B
:1003F000547C0A097F4932494949323A4444443AD3
:10040000324A4848303A4141217A3A424020780005
:100410009DA0A07D3D4242423D3D4040403D3C24A8
:10042000FF2424487E4943662B2FFC2F2BFF0929EC
:10043000F620C0887E090320545479410000447D91
:10044000413048484A32384040227A007A0A0A72DB
:100450007D0D19317D2629292F2826292929263085
:10046000484D4020380808080808080808382F10A8
:10047000C8ACBA2F102834FA00007B000008142AF8
:10048000142222142A14085500550055AA55AA55BD
:10049000AAFF55FF55FF000000FF00101010FF00DD
:1004A000141414FF001010FF00FF1010F010F014CF
:1004B0001414FC001414F700FF0000FF00FF1414D4
:1004C000F404FC141417101F10101F101F14141420
:1004D0001F00101010F0000000001F101010101F5F
:1004E00010101010F010000000FF1010101010106D
:1004F000101010FF10000000FF140000FF00FF00AC
:10050000001F10170000FC04F41414171017141423
:10051000F404F40000FF00F714141414141414F776
:1005200000F7141414171410101F101F141414F4CF
:10053000141010F010F000001F101F0000001F1416
:10054000000000FC140000F010F01010FF10FF1469
:100550001414FF141010101F00000000F010FFFF13
:10056000FFFFFFF0F0F0F0F0FFFFFF0000000000E1
:10057000FFFF0F0F0F0F0F3844443844FC4A4A4A1C
:10058000347E02020606027E027E02635549416302
:100590003844443C04407E201E2006027E0202991C
:1005A000A5E7A5991C2A492A1C4C7201724C304AB5
:1005B0004D4D303048784830BC625A463D3E49493E
:1005C00049007E0101017E2A2A2A2A2A44445F44E6
:1005D0004440514A444040444A51400000FF010316
:1005E000E080FF000008086B6B08361236243606E0
:1005F0000F090F060000181800000010100030400E
:10060000FF0101001F01011E00191D1712003C3CD3
:100610003C3C000000000002DB40A4A62EAF2000FE
:10062000A1C8D300408DAED580A8000060000000B6
:100630000000000000000000000000E000000000DA
:1006400000000000000000000001E00000000000C9
:10065000000000000000000001F0000000000000A9
:100660000000000000000003F00000000000000097
:1006700000000000000007F0000000000000000083
:10068000000000000007F80000000000000000006B
:10069000000000000FF800000003C0007E00000111
:1006A000E0007F0FF800000003C000FE000001E042
:1006B00000FFEFF800000003C000FE000001E000B2
:1006C000FFFFF800000003C000F00000000F007FF3
:1006D000FE7FC0000003C000F00000000F003FFEDE
:1006E0007FF83FF1FBCFFCFEF3BC3DEFE01FFE7F48
:1006F000FF7FFBFFDFFEFEFFBC3DEFE01FC6FFFFFD
:100700007FFBFFDFFEFEFFBC3DEFE00FE3C7FE789F
:100710007BC3DE1EF0FFBC3DEF0007FF87FC787B4C
:10072000C3DE1EF0F83C3DEF0001FFFFF0007BC38D
:10073000C01EF0F03C3DEF0001F37FE03FFBC3CF74
:10074000FEF0F03C3DEF0003E33F807FFBC3DFFEA4
:10075000F0F03C3DEF0007E73C00787BC3DE1EF085
:10076000F03C3DEF0007FFBE00787BC3DE1EF0F0DB
:100770003C3DEF0007FFFE00787BC3DE1EF0F03C3F
:100780003DEF000FFFFE007FFBFFDFFEF0F03FFDBF
:10079000EFE00FFFFF007FFBFFDFFEF0F03FFDEF1C
:1007A000E00FF9FF003E79F9CF9EF0F01F3DE7E042
:1007B0001FF1FF0000000000000000000000001F0B
:1007C00080FF007FFFFFFFFFFFFFFFFFFFE01C0038
:1007D0007F007FFFFFFFFEB46D888D18E000001FD3
:1007E000007FFFFFFFFE95AD7DB577E000000F00B5
:1007F0007FFFFFFFFEA5AD9D8D19E0000006007F85
:10080000FFFFFFFEB5ADEDB57EE00000000000018A
:1008100080000000000000000000038000000000D5
:10082000000000000007C000000000000000000001
:1008300007C00000000000000000000FC000000022
:100840000000000000001FE00000000000000000A9
:10085000001FE00000000000000000003FE000007A
:10086000000000000000003FF00000000000000059
:1008700000007FF0000000000000001FF87FF00083
:100880000000000000003FFE7FF0000000000000BC
:10089000003FFF7FF0000000000000001FFFFBE0B2
:1008A000000000000000000FFFF9FFC00000000082
:1008B00000000FFFF9FFF800000000000007FFF143
:1008C000FFFF00000000000003FC73FFFF8000003A
:1008D00000000001FE3FFFFF80000000000000FF5D
:1008E0001E0FFF000000000000007FFE1FFC000044
:1008F00000000000003FFFFFF800000000000000C3
:100900000FDFFFE0000000000000001F19FFC00023
:100910000000000000003F3CFF000000000000005D
:10092000007E7CF800000000000000007FFE7C00DC
:1009300000000000000000FFFFFC000000000000BD
:100940000000FFFFFE0000000000000000FFFFFEAF
:100950000000000000000001FFEFFE0000000000AA
:10096000000001FFCFFE0000000000000003FF07B1
:10097000FE0000000000000003FC07FE0000000075
:1009800000000003F003FE000000000000000180F2
:1009900000FE000000000000000000007E000000DB
:1009A000000000000000003E000000000000000009
:1009B00000000C000000000000078000FC000003A5
:1009C000C0000000078001FC000003C00000000719
:1009D0008001FC000003C0000000078001E000006F
:1009E000001E000000078001E00000001E007FE301
:1009F000F79FF9FDE7787BDFC0FFF7FFBFFDFDFF45
:100A0000787BDFC0FFF7FFBFFDFDFF787BDFC0F025
:100A1000F787BC3DE1FF787BDE00F0F787BC3DE166
:100A2000F0787BDE0000F787803DE1E0787BDE0038
:100A30007FF7879FFDE1E0787BDE00FFF787BFFD52
:100A4000E1E0787BDE00F0F787BC3DE1E0787BDE1B
:100A500000F0F787BC3DE1E0787BDE00F0F787BC73
:100A60003DE1E0787BDE00FFF7FFBFFDE1E07FFBCB
:100A7000DFC0FFF7FFBFFDE1E07FFBDFC07CF3F3EA
:100A80009F3DE1E03E7BCFC0000000000000000081
:100A9000000000FFFFFFFFFFFFFFFFFFFFC0FFFFA2
:100AA000FFFFFD68DB111A31C0FFFFFFFFFD2B5A6E
:100AB000FB6AEFC0FFFFFFFFFD4B5B3B1A33C0FF3C
:100AC000FFFFFFFD6B5BDB6AFDC0436F70797269EE
:100AD00067687420286329203230323400566572EA
:100AE00020342E302E3320466562203237203230BB
:100AF00032350041726475696E6F2053706F7420D7
:100B000057656C646572002D20636F727265637443
:100B10002074686520776972696E67002D207265A0
:100B20006D6F766520666F6F742073776974636884
:100B3000002D207475726E206F66662077656C6478
:100B4000657200506C656173653A00464F4F5420E2
:100B5000535749544348204552524F522100507533
:100B60006C73652054696D652020202020202000B2
:100B7000446973706C617920496E766572742020C7
:100B8000200057656C6420536F756E642020202010
:100B9000202020004175746F2050756C73652020F3
:100BA00020202020200053686F72742050756C73D1
:100BB000652054696D6520004D61782050756C7317
:100BC000652054696D65202020004175746F2050A8
:100BD000756C73652044656C6179200057656C64A1
:100BE00020436F756E742020202020202000426159
:100BF000747465727920416C61726D202020200030
:100C000050756C736520416D70732020202020206A
:100C1000200050756C736520566F6C746167652099
:100C200020202000202020746F20457869742053F4
:100C300074616E6462790020506C65617365204355
:100C40006C69636B20427574746F6E00202053547E
:100C5000414E44425920004C4F5720564F4C54535C
:100C6000004849474820564F4C5453004300504CCD
:100C70004541534520434F4F4C20444F574E004869
:100C80004947482054454D500053687274205075B0
:100C90006C7365004261747420416C61726D002553
:100CA000206F662050756C73652054696D65005324
:100CB000686F72742050756C73652044757261742E
:100CC000696F6E00566F6C7473004C6F77204261D1
:100CD000747465727920416C61726D002020536FCD
:100CE000756E6420202000202044656C61792020EE
:100CF000200020204D6F6465202020200050756C5E
:100D0000736520536574004F4646004F4E0057658B
:100D10006C642050756C736520536F756E6400535E
:100D200065636F6E6473004175746F2050756C73EA
:100D3000652044656C6179004D616E75616C0041A0
:100D400075746F2050756C73650057656C64205026
:100D5000756C73652041637469766174696F6E00A8
:100D6000202020426F6F74202020002020446973CF
:100D7000706C6179200053797374656D204D656ED8
:100D8000750046756C6C205265736574005361661E
:100D900065205265736574005265626F6F742053ED
:100DA000706F742057656C6465720020202077692D
:100DB00074682046756C6C20526573657400202041
:100DC0002077697468205361666520526573657485
:100DD00000202020776974686F75742052657365F0
:100DE000740020205265626F6F742020006D7300C4
:100DF000536574204D61782057656C642050756C84
:100E000073650020504C454153452052454D4F5687
:100E10004520504F57455200202020447572617480
:100E2000696F6E20536574004D61782050756C7346
:100E30006520004E4F524D414C00494E564552548C
:100E400045440053637265656E204F7269656E7428
:100E50006174696F6E005570646174656420454506
:100E600050524F4D0000000000240027002A0000CF
:100E7000000000250028002B0000000000230026B1
:100E8000002900040404040404040402020202020F
:100E9000020303030303030201020408102040803D
:100EA0000102040810200102040810208000000044
:100EB0000800020100000304070000000000000019
:100EC000000025312E31752E253031750025332E49
:100ED00031750025332E31750025352E31750025ED
:100EE000352E31750025352E31750025322E3175A0
:100EF0002E253032750025312E31752E2530317575
:100F000000560042415454455259004175746F2DAA
:100F100050756C7365204163746976617465640013
:100F20002200FF2100007123D72F11241FBECFEF15
:100F3000D8E0DEBFCDBF11E0A0E0B1E0EAE8FEE618
:100F400002C005900D92A839B107D9F723E0A8E9AE
:100F5000B1E001C01D92A43AB207E1F717E0C4E97D
:100F6000D7E004C02197FE010E942D37C339D10775
:100F7000C9F70E940F240C9438370C94000091E0BC
:100F800090938902809388021092870210928602C1
:100F90000895809353038093540370E070934C033F
:100FA00060934B0350E050934E0340934D03222334
:100FB00059F01092500310924F0381E090E090930B
:100FC000520380935103089581E090E0909352037F
:100FD000809351039093500380934F030895089595
:100FE000833081F028F4813099F08230A9F008959F
:100FF0008730A9F08830C9F08430B1F48091800046
:101000008F7D03C0809180008F778093800008954A
:1010100084B58F7784BD089584B58F7DFBCF809193
:10102000B0008F778093B00008958091B0008F7DDD
:10103000F9CFCF93DF93282F30E0F901E355F14F3B
:101040008491F901E856F14FD491F901ED57F14F30
:10105000C491CC23A1F081110E94F007EC2FF0E0A5
:10106000EE0FFF1FE758F14FA591B491EC91ED23DE
:1010700081E090E009F480E0DF91CF91089580E075
:1010800090E0FACF1F93CF93DF93282F30E0F90140
:10109000E355F14F8491F901E856F14FD491F901EC
:1010A000ED57F14FC491CC23A9F0162F81110E9466
:1010B000F007EC2FF0E0EE0FFF1FE159F14FA59183
:1010C000B4918FB7F894EC91111108C0D095DE233C
:1010D000DC938FBFDF91CF911F910895DE2BF8CF66
:1010E000CF93DF9390E0FC01E856F14F24918D57A8
:1010F000914FFC0184918823C9F090E0880F991FDB
:10110000FC01EB59F14FA591B491FC01E159F14F6C
:10111000C591D49161110DC09FB7F8948C91209521
:1011200082238C938881282328839FBFDF91CF91CE
:101130000895623051F49FB7F8943C91822F8095C6
:1011400083238C93E8812E2BEFCF8FB7F894EC910B
:101150002E2B2C938FBFEACF8E50806480937C001F
:1011600080917A00806480937A0080917A0086FD75
:10117000FCCF809178009091790008953FB7F89462
:1011800080912F0290913002A0913102B0913202F1
:1011900026B5A89B05C02F3F19F00196A11DB11DD2
:1011A0003FBFBA2FA92F982F8827BC01CD01620F0E
:1011B000711D811D911D42E0660F771F881F991FC9
:1011C0004A95D1F708958F929F92AF92BF92CF9296
:1011D000DF92EF92FF926B017C010E94BE084B01EF
:1011E0005C01C114D104E104F104B9F00E94BE080D
:1011F000681979098A099B09683E73408105910540
:1012000080F321E0C21AD108E108F10888EE880EC7
:1012100083E0981EA11CB11CE4CFFF90EF90DF90FB
:10122000CF90BF90AF909F908F9008952FB7F89474
:1012300060912B0270912C0280912D0290912E02D0
:101240002FBF08950895089508959091000189137E
:101250000BC0E7E1F6E0E4919FEF90930001E130ED
:1012600049F028F0E23061F060E00C9442081092FE
:101270006E00FACF90916F009D7F90936F00F4CF36
:10128000909170009D7F9093700091E09093B000DA
:101290009091B100987F94609093B1001092B30048
:1012A000E3CFEF92FF920F931F93CF93DF938C01C5
:1012B0007B01D0E0C0E0F701EC0FFD1F64916623D5
:1012C00061F0D801ED91FC910190F081E02DC80111
:1012D0000995892B11F02196EECFCE01DF91CF91A8
:1012E0001F910F91FF90EF900895AF92BF92CF9210
:1012F000DF92EF92FF920F931F93CF93DF936C01D6
:101300007B018B01040F151FEB015E01AE18BF08B6
:10131000C017D10759F06991D601ED91FC91019068
:10132000F081E02DC6010995892B79F7C501DF9180
:10133000CF911F910F91FF90EF90DF90CF90BF90D2
:10134000AF900895FC01538D448D252F30E0842FFC
:1013500090E0821B930B541710F0CF9608950197DD
:101360000895FC01918D828D981761F0A28DAE0FCA
:10137000BF2FB11D5D968C91928D9F5F9F73928F51
:1013800090E008958FEF9FEF0895FC01918D828D7D
:10139000981731F0828DE80FF11D858D90E008954A
:1013A0008FEF9FEF0895FC01918D228D892F90E0A2
:1013B000805C9F4F821B91098F739927089582EA61
:1013C00092E00E94D30921E0892B09F420E0822FCA
:1013D000089580E090E0892B29F00E94DF098111B7
:1013E0000C9400000895FC01A48DA80FB92FB11D25
:1013F000A35ABF4F2C91848D90E001968F7399274B
:10140000848FA689B7892C93A089B1898C91837028
:1014100080648C93938D848D981306C00288F38921
:10142000E02D80818F7D80830895EF92FF920F934E
:101430001F93CF93DF93EC0181E0888F9B8D8C8D80
:1014400098131AC0E889F989808185FF15C09FB774
:10145000F894EE89FF896083E889F9898081837037
:10146000806480839FBF81E090E0DF91CF911F91E6
:101470000F91FF90EF900895F62E0B8D10E00F5F07
:101480001F4F0F731127E02E8C8D8E110CC00FB6DD
:1014900007FCFACFE889F989808185FFF5CFCE0175
:1014A0000E94F309F1CFEB8DEC0FFD2FF11DE35AF4
:1014B000FF4FF0829FB7F8940B8FEA89FB898081F8
:1014C0008062CFCFCF93DF93EC01888D8823B9F072
:1014D000AA89BB89E889F9898C9185FD03C080813F
:1014E00086FD0DC00FB607FCF7CF8C9185FFF2CFBC
:1014F000808185FFEDCFCE010E94F309E9CFDF9116
:10150000CF9108952091E701260F3327331F213211
:101510003105ECF420915E02FC0190E080E0243083
:1015200069F082E00895A091E7012191AC0149534F
:101530005E4FA40FB52FB11D2C930196861798F31B
:101540008091E701680F6093E70180E0089581E0F2
:10155000089510925E0281E080935D02109258021D
:1015600061E082E10E94420861E083E10E9442085A
:10157000E9EBF0E080818E7F808380818D7F8083A6
:1015800088E48093B80085E48093BC000895CF93ED
:10159000DF9391E09093C6018823B9F0C091B80021
:1015A000D091BA008091BC008A7B8093BC0060E03F
:1015B00082E10E94420860E083E10E9442080E94AA
:1015C000A90AD093BA00C093B800DF91CF910895D3
:1015D000E091650280916402E81730F4F0E0EA5986
:1015E000FD4F808190E008958FEF9FEF08959091D7
:1015F0006502809164022FEF3FEF981748F4E92FBE
:10160000F0E0EA59FD4F208130E09F5F9093650242
:10161000C90108958091640290916502891B990B1C
:101620000895CF92DF92EF92FF920F931F93CF9383
:10163000DF937C01CB018A0120918902222389F06A
:10164000EB016B01C40ED51ECC15DD0569F0699167
:10165000D701ED91FC910190F081E02DC701099532
:10166000F3CF642F0E94820AC801DF91CF911F91AE
:101670000F91FF90EF90DF90CF900895CF93DF937D
:101680001F92CDB7DEB76983209189022223F9F03A
:1016900020918602203258F021E030E0FC013383B3
:1016A000228390E080E00F90DF91CF9108958091A8
:1016B0008702E82FF0E0EA55FE4F998190838F5F13
:1016C000809387028093860281E090E0ECCF61E016
:1016D000CE0101960E94820AF7CFCF92DF92EF925D
:1016E000FF920F931F93CF93DF93D091860281E0F7
:1016F000D13208F09CC0C09188020E94BE086B01E4
:101700007C0180915E0281116CC082E080935E0258
:1017100081E080935D028FEF80935C0210925B0208
:10172000D0935A02A6EAB1E0E8E3F2E080E0D813F1
:101730008DC01092590280915902CC0FC82BC093D2
:10174000590280915802813009F084C010925802E9
:101750000E94BE086B017C01809159028093BB00FE
:101760008091600290916102A0916202B091630247
:10177000892B8A2B8B2BA1F00E94BE08009160025E
:101780001091610220916202309163026C197D090F
:101790008E099F09061717072807390708F442C062
:1017A0008091BC0083FDD8CF85EC8093BC000E9463
:1017B000BE086B017C0180915E02823009F44CC04E
:1017C00080915C028F3F09F469C080915C02803295
:1017D00009F466C080915C02803309F463C084E040
:1017E00026C08091600290916102A0916202B09146
:1017F0006302892B8A2B8B2B09F483CF0E94BE08AE
:1018000000916002109161022091620230916302A6
:101810006C197D098E099F090617170728073907D4
:1018200008F06FCF80915F020E94C70A85E0109296
:1018300087021092860210928902DF91CF911F9148
:101840000F91FF90EF90DF90CF9008959D9191932D
:101850008F5F6DCF85EEA9CF80916002909161027C
:10186000A0916202B0916302892B8A2B8B2B09F421
:10187000A2CF0E94BE0800916002109161022091E7
:101880006202309163026C197D098E099F09061767
:1018900017072807390708F08ECFC4CF80E0C7CFDD
:1018A00082E0C5CF83E0C3CFFF920F931F93CF9306
:1018B000DF93F82E162F072FCBE8D3E08A890E94FA
:1018C000BF078B899C89DC01ED91FC910190F0812F
:1018D000E02D6F2D09958B899C89DC01ED91FC91A0
:1018E0000190F081E02D602F09958B899C89DC01A6
:1018F000ED91FC910190F081E02D612F09958B898C
:101900009C890E946D0B90E0DF91CF911F910F9108
:10191000FF9008950895FC016370668B8481958122
:1019200026813781613039F0633029F091878087D3
:101930003387228708953187208793878287089588
:101940002F923F924F925F926F927F928F929F92CF
:10195000AF92BF92CF92DF92EF92FF920F931F93BD
:10196000CF93DF93CDB7DEB76A970FB6F894DEBF9B
:101970000FBECDBF9A8F898F7A8369834A01D22E99
:1019800018870F833701BC2CDC0159962D913C91AF
:101990005A972115310509F015C118968D919C9122
:1019A0001997681779070CF0D7C11A968D919C91F9
:1019B000481759070CF0D0C14C2C512CB6E0CB9EE7
:1019C000600D711D11247C876B87161617060CF0AD
:1019D000C3C1EA2DF0E0FA87E98793E0EE0FFF1F1D
:1019E0009A95E1F7F88BEF87CF01840F951F1816B2
:1019F00019060CF0B1C1A98DBA8D58968C91811140
:101A000004C0BFEABD1508F4D394A98DBA8DED9139
:101A1000FC9111970284F385E02DCD010995B5E085
:101A2000DB9EC0011124E981FA81FC83EB83312C18
:101A3000212C9C01295E3E4F388F2F8B4A2D50E080
:101A40005E8B4D8BEF89F88DE20DF31D44919E82E4
:101A50008D82D12CC12C69817A81620D731D7A8BA4
:101A6000698B842F90E09C8B8B8BE98DFA8DA08104
:101A7000B18140FF82C0F1E0BF126FC0AF126DC0F4
:101A80001C96ED91FC912F813885A4014C0D5D1DB4
:101A900069897A89898D9A8D0995EB89FC89F595F3
:101AA000E7954E2F5FEFC51AD50A6D817E818D892E
:101AB0009E89680F791F7E836D8398E0C916D104D3
:101AC00081F6AFEF2A1A3A0AEB81FC81E40DF51D8D
:101AD000FC83EB83F5E02F16310409F0B3CF2F819F
:101AE000388526153705B9F0A98DBA8DED91FC9191
:101AF000B1E0BB1257C0AB1255C069817A816B5FF0
:101B00007F4F0088F189E02D830128E030E0A401B7
:101B1000898D9A8D0995A98DBA8DED91FC911197BA
:101B20000688F789E02DCD016A960FB6F894DEBFDE
:101B30000FBECDBFDF91CF911F910F91FF90EF901E
:101B4000DF90CF90BF90AF909F908F907F906F90DD
:101B50005F904F903F902F9009941E96ED91FC91CD
:101B6000EF80F88409851A8592014D815E816B8131
:101B70007C81898D9A8D099590CF2F813885261586
:101B8000370509F48ACF31E0B31207C0A31205C0AC
:101B90001C96ED91FC91930178CF1E96ED91FC91EE
:101BA0007301E0CF6B857C85641975090684F78520
:101BB000E02D73010F8518899201A401898D9A8DFA
:101BC0000995A9CFF9013496949132974591549192
:101BD000D91AB7E0DB9E400D511D1124F901259162
:101BE00034913C8B2B8BFA0125903490FA0132967C
:101BF000749031963491398B32966490319644903A
:101C000041E04C1518F04A1508F07FC0662D062CEF
:101C1000000C770B7C836B83842D042C000C990BB8
:101C20009E838D83A98DBA8DED91FC9111970284CD
:101C3000F385E02DCD010995512CD12CC12CEA2D35
:101C4000F0E0FA87E9872B2D30E03C872B87A40151
:101C5000440D511D47FC5A95588F4F8B69817A81ED
:101C6000660D711D67FC7A957E876D877989C71629
:101C700008F051CF2C2D30E04D815E81420F531F73
:101C8000A985BA854A9FC0014B9F900D5A9F900D20
:101C90001124FC01E80DF91DF88BEF87852D612CCF
:101CA0004F89588D420F531F5E8B4D8B671408F080
:101CB00050C044244394480E877041F4C1010196FA
:101CC000EB89FC89E20DF31DD4901C01D7FE19C0ED
:101CD000A98DBA8DED91FC91662D70E0B1E0BB123B
:101CE00019C0AB1217C02D853E85620F731F048487
:101CF000F585E02D2F8138854D895E89898D9A8DF6
:101D00000995DD0C6394842DD1CF1E821D821C8227
:101D10001B8288CF4B815C81640F751FAB85BC85AE
:101D20006A9FC0016B9F900D7A9F900D112469816D
:101D30007A81680F791F0684F785E02DEF80F8849B
:101D400009851A859D014F855889898D9A8D099538
:101D5000D8CF570CC3948ACF6A960FB6F894DEBFDB
:101D60000FBECDBFDF91CF911F910F91FF90EF90EC
:101D7000DF90CF90BF90AF909F908F907F906F90AB
:101D80005F904F903F902F9008958F929F92AF92C7
:101D9000CF92EF92FF920F931F93CF93DF93EC01BB
:101DA000262F898D9A8D009709F051C06A30D1F4A1
:101DB0001D861C868D8948E0849F900111248E85A4
:101DC0009F85820F931F9F878E8781E090E0DF9130
:101DD000CF911F910F91FF90EF90CF90AF909F9078
:101DE0008F9008956D3089F3CC88AD888F898823D2
:101DF000C1F08C859D8536E0C39E800D911D112418
:101E0000488559854817590764F44E855F851D86B6
:101E10001C8638E0A39EC0011124840F951F9F8764
:101E20008E87EA88FB88088919894E855F856C85CD
:101E30007D85CE010E94A00C2C898C859D8546E075
:101E4000249F800D911D11249D878C87BECF6A3001
:101E500069F41D861C86FC013896E4912D898E85D7
:101E60009F85E29F800D911D1124ADCF6D3009F447
:101E7000ACCFFC0134963491631708F4A6CF3296A8
:101E8000E491E61708F4A1CFFC0132968590949076
:101E9000462F431B342F47E0349F800C911C1124A4
:101EA000F401329634913196E4913323A9F1EE2373
:101EB00099F1CC88F4013596E491AD884F8944239B
:101EC00001F10E2E000CFF0BE30FF11DCE9EA001C1
:101ED000CF9E500D11246C857D85460F571F688558
:101EE0007985641775076CF44E855F851D861C86A1
:101EF000FC013896E491AE9E400D511D11245F8780
:101F00004E87EA88FB88088919894E855F856C852C
:101F10007D85CE010E94A00CF4013496E4912C89B9
:101F20008C859D85E29F800D911D11248DCF6F9230
:101F30007F928F929F92AF92BF92CF92DF92EF9259
:101F4000FF920F931F93CF93DF93EC016B015A0124
:101F500039014801E881F9810284F385E02D099572
:101F6000E881F9810288F389E02D87019301A501B9
:101F7000B601CE010995A501480D591D41505109E1
:101F8000E881F9810288F389E02D9301B601CE0141
:101F90000995E881F9810088F189E02D9401A50176
:101FA000B601CE010995C60CD71CB6016150710966
:101FB000E881F9810088F189E02D9401A501CE0125
:101FC0000995E881F9810688F789E02DCE01DF9136
:101FD000CF911F910F91FF90EF90DF90CF90BF9026
:101FE000AF909F908F907F906F9009946F927F92A7
:101FF0008F929F92AF92BF92CF92DF92EF92FF9219
:102000000F931F93CF93DF935C01EB016A014901AA
:1020100038018701DC01ED91FC916217730719F516
:10202000641675062CF0962D872D3A01C92ED82EF0
:102030009601261937092F5F3F4F048CF58DE02D4F
:10204000A301BE01C5010995DF91CF911F910F91A9
:10205000FF90EF90DF90CF90BF90AF909F908F90C8
:102060007F906F9008954615570591F4261737070E
:1020700024F0892D4B01C22FD82F9E012819390930
:102080002F5F3F4F068CF78DE02DA601B401DACF0C
:102090000284F385E02D0995D501ED91FC9104882A
:1020A000F589E02D83019401A601BE01C5010995C2
:1020B000D501ED91FC910688F789E02DC501DF91EE
:1020C000CF911F910F91FF90EF90DF90CF90BF9035
:1020D000AF909F908F907F906F900994EF92FF92B6
:1020E0000F931F93DC011A960D911C911B97189664
:1020F0002D913C911997ED91FC9100A0F1A1E02D5B
:102100007B0150E040E070E060E009951F910F9185
:10211000FF90EF9008954F925F926F927F928F920F
:102120009F92AF92BF92CF92DF92EF92FF920F9366
:102130001F93CF93DF936C012B015A0139014801A2
:10214000DC01ED91FC910284F385E02D0995E2011B
:10215000640C751CD601ED91FC91C615D7055CF495
:102160000088F189E02D87019401A501BE01C60117
:1021700009952196EFCF0688F789E02DC601DF91FA
:10218000CF911F910F91FF90EF90DF90CF90BF9074
:10219000AF909F908F907F906F905F904F90099439
:1021A0008F929F92AF92BF92CF92DF92EF92FF9267
:1021B0000F931F93CF93DF93EC015B014A016901F9
:1021C000E881F9810284F385E02D099595012C0DB4
:1021D0003D1D21503109E881F9810488F589E02D00
:1021E00078018401A401B501CE010995E881F98146
:1021F0000688F789E02DCE01DF91CF911F910F91D5
:10220000FF90EF90DF90CF90BF90AF909F908F9016
:1022100009948F929F92AF92BF92CF92DF92EF92EA
:10222000FF920F931F93CF93DF93EC015B014A0161
:1022300069017801E881F9810284F385E02D09952F
:10224000C80CD91C860101501109E881F981048864
:10225000F589E02D9501A401B501CE010995E8812C
:10226000F9810688F789E02DCE01DF91CF911F918A
:102270000F91FF90EF90DF90CF90BF90AF909F9025
:102280008F900994EF92FF920F931F93DC01ED91D1
:10229000FC9100A0F1A1E02D09951F910F91FF90F5
:1022A000EF9008950F931F93DC01ED91FC91068C44
:1022B000F78DE02D09951F910F9108950F931F93AE
:1022C000DC01ED91FC91048CF58DE02D09951F91B9
:1022D0000F910895DC01ED91FC910084F185E02DD2
:1022E00009943F924F925F926F927F928F929F924A
:1022F000AF92BF92CF92DF92EF92FF920F931F9314
:10230000CF93DF935C017B014A016901390187E0CA
:10231000680E711C93E0759467949A95E1F72B0110
:10232000400E511E10E000E0312CD0E0C0E0CE01A4
:1023300087709927330C892B59F4FE0183E0F595BA
:10234000E7958A95E1F7E00FF11FE80DF91D34904C
:1023500037FE0AC021E030E0A701B5016C0F7D1FF8
:102360008FE393E00E946A112196CC16DD06F9F600
:102370008FEFE81AF80A060D171DE414F504A9F604
:10238000DF91CF911F910F91FF90EF90DF90CF9051
:10239000BF90AF909F908F907F906F905F904F9085
:1023A0003F9008952F923F924F925F926F927F924B
:1023B0008F929F92AF92BF92CF92DF92EF92FF9255
:1023C0000F931F93CF93DF9300D000D000D0CDB7F1
:1023D000DEB73C016A013E832D83FC82EB8258010B
:1023E000A41AB50AB7FE03C0B194A194B1088D80B8
:1023F0009E80861A970A97FE03C091948194910853
:102400008A149B045CF0902F812F0D811E819D8387
:102410008E839C2D8D2D6B01692F782F0C151D053A
:102420005CF09D818E817E836D83692F782F902F44
:10243000812F8601C92ED82E1601201A310A2B01B0
:102440002D813E81421A530A57FE03C05194419494
:102450005108710137FE03C03FEFE31AF30AF59408
:10246000E7948D819E81861797075CF5A1E0B0E027
:10247000BA83A983C016D1064CF1D301ED91FC912A
:102480000484F585E02D2B813C81A8016D817E813E
:102490008A149B041CF04D815E81B801C30109952B
:1024A000E418F508F7FE0AC02D813E8189819A81E2
:1024B000280F391F3E832D83E20CF31C0F5F1F4F43
:1024C000D9CF2FEF3FEF3A832983D4CF26960FB68B
:1024D000F894DEBF0FBECDBFDF91CF911F910F915A
:1024E000FF90EF90DF90CF90BF90AF909F908F9034
:1024F0007F906F905F904F903F902F900895EF9254
:10250000FF920F931F93CF93DF93EC01EC80FD803C
:102510006E157F050CF070C057FF04C0240F351FE7
:1025200050E040E08E819F81FA01E20FF31F8E1789
:102530009F071CF49C01241B350B121613060CF08C
:102540005BC0922F842F8695869586958E9DD001AF
:102550008F9DB00D11246A0F7B1FAF8DB8A1A60F00
:10256000B71F477049F188E0841B482F682F70E03F
:10257000FB01E15FFE4FE491281708F063C0621B86
:1025800071092FEF30E002C0359527956A95E2F783
:10259000E2230130110539F0B0F10230110561F587
:1025A0008C91E82702C08C91E82BEC93941720F1D2
:1025B0002C813D81A20FB31FE92FE41BE83078F096
:1025C0000230110521F58E2F9C9190959C932C81C2
:1025D0003D81A20FB31F88508830B0F7E770EE231B
:1025E00059F0F0E0E95FFE4FE49101301105F9F098
:1025F00010F10230110519F1DF91CF911F910F9168
:10260000FF90EF900895E0958C91E823CECF81E084
:102610000115110509F480E081959E2F8C932C8182
:102620003D81A20FB31F98509830C0F7D7CF8C913F
:10263000E82BEC93E1CFE0958C91E823FACF8C91D5
:10264000E827F7CF0130110509F4ADCFE0F20230F1
:10265000110509F4A5CFAE0DBF1DAECF0F931F938B
:10266000CF93DF9377FF04C0260F371F70E060E041
:10267000DC011496CD91DC91FB01E20FF31FCE1724
:10268000DF071CF49E01261B370B121613064CF5B0
:10269000FA0157FD3796A3E0F595E795AA95E1F77E
:1026A000EC9FD001ED9FB00DFC9FB00D11246A0F7F
:1026B0007B1FDC015F96ED91FC91E60FF71F4770E1
:1026C000552781E090E001C0880F4A95EAF7482F2E
:1026D0000130110559F0A8F02E0F3F1F02301105EF
:1026E000E1F0DF91CF911F910F9108952E0F3F1FC1
:1026F000E217F307B1F38191DF011197842B8C93DB
:10270000F7CF80952E0F3F1FE217F30751F39191FA
:10271000DF01119798239C93F7CFE217F30709F392
:102720008191DF01119784278C93F7CF0F931F932B
:10273000FA01DC0156964C9156974230E9F043304D
:10274000A1F1413061F514964D915C91DA01AE1B17
:10275000BF0BFD01E21BF30B77FD0BC0DC011696EE
:102760004D915C916417750724F4AB01BF010E9481
:102770002E131F910F91089514964D915C91DA01DB
:10278000A61BB70BBD0161507109DC0116964D9176
:102790005C91DA01AE1BBF0BFD01E21BF30B77FD71
:1027A000E8CFAF010E947F12E4CF16964D915C9165
:1027B000DA01A61BB70BBD0161507109CDCF0F9394
:1027C0001F93FA01DC0156964C9156974230A9F0BE
:1027D000433091F1413019F514964D915C91DA0135
:1027E000AE1BBF0BFD013197F7FD04C0AB01BF016C
:1027F0000E947F121F910F91089514964D915C9144
:10280000DA01A61BB70BBD01DC0116964D915C9158
:10281000DA01AE1BBF0BFD013197621B730BF7FD95
:10282000E9CFDC0116964D915C91E417F50714F79A
:10283000AF010E942E13DECF16964D915C91DA0106
:10284000A61BB70BBD01621B730BCECFFC0177FD3E
:1028500064C080859185681779070CF05EC057FDCC
:102860005CC082859385481759070CF056C086894D
:102870008230B1F0833029F1813041F48481958137
:10288000841B950BAB01BC016150710921303105EE
:1028900009F108F443C02230310509F463C00895FA
:1028A00084819581DC01A61BB70BBD0161507109C4
:1028B00086819781DC01A41BB50BAD014150510904
:1028C000E5CF86819781861B970BBA01AC014150F9
:1028D0005109DCCFCA0157FD0796A3E0959587956E
:1028E000AA95E1F7A481B5818A9F90018B9F300D55
:1028F0009A9F300D1124620F731F078CF0A1E02DF9
:10290000E60FF71F4770552721E030E001C0220F86
:102910004A95EAF78081822B80830895CA0157FD8A
:10292000079633E0959587953A95E1F7A481B581AF
:102930008A9F90018B9F300D9A9F300D1124620F5A
:10294000731F078CF0A1E02DE60FF71F4770552786
:1029500081E090E001C0880F4A95EAF78095908168
:102960008923DACFCA0157FD079623E0959587950D
:102970002A95E1F7A481B5818A9F90018B9F300D44
:102980009A9F300D1124620F731F078CF0A1E02D68
:10299000E60FF71F4770552721E030E001C0220FF6
:1029A0004A95EAF780818227B7CF08958EBD00004F
:1029B0000DB407FEFDCF8EB50895EF92FF920F93F1
:1029C0001F93CF937C01C62F80915C0390915D0390
:1029D000892B09F44EC0809160030E94BF0780914B
:1029E0005C0390915D03DC01ED91FC910190F0811D
:1029F000E02D60E009958701EE24E394F12CC150AD
:102A000080915C0390915D03CF3F61F1B0E2EB16E2
:102A1000F104A8F00E946D0B809160030E94BF0733
:102A200080915C0390915D03DC01ED91FC9101903C
:102A3000F081E02D60E00995EE24E394F12C809183
:102A40005C0390915D03F8016491DC01ED91FC91D0
:102A50000190F081E02D0995BFEFEB1AFB0A0F5FA3
:102A60001F4FCDCFCF911F910F91FF90EF900C94FE
:102A70006D0BE0916C03F0916D0390818091720376
:102A80008095892380838701C15008F438C0F801FC
:102A9000849120915A0330915B03232B29F00E94EB
:102AA000D6140F5F1F4FF0CF28E030E040E8E091F0
:102AB0006803F091690390917003582F5423D9F063
:102AC0005081952B9083E0916A03F0916B03908184
:102AD00050917103952B9083E0916A03F0916B0301
:102AE0005081909171039095952390834695215044
:102AF0003109E9F6D6CF508190959523E3CFCF9158
:102B00001F910F91FF90EF9008951F93CF93DF9344
:102B1000EC018D8D9E8D892BF9F0162F89A10E94D5
:102B2000BF078D8D9E8DDC01ED91FC910190F081B0
:102B3000E02D60E009958D8D9E8DDC01ED91FC917D
:102B40000190F081E02D612F09958D8D9E8DDF9193
:102B5000CF911F910C946D0BADA5BEA59C918BA937
:102B6000809589238C938B8D9C8D892B31F0862FBA
:102B7000DF91CF911F910C94D61428E030E080E8CB
:102B8000A9A5BAA599A9462F4823C1F04C91942B29
:102B90009C93ABA5BCA59C914AA9942B9C93ABA5F7
:102BA000BCA54C919AA9909594239C93869521500D
:102BB000310931F7DF91CF911F9108954C91909594
:102BC0009423E6CF8CBD9DBD0895EF92FF920F93A5
:102BD0001F93CF93DF9380915C0390915D03892BCA
:102BE00009F48DC0209174033091750340917603F0
:102BF0005091770360E074E284EF90E00E942A3401
:102C00002051310941095109569547953795279526
:102C10002093B80065E080E29FE00E94DD1460919F
:102C2000430361508FE393E00E9485152091450393
:102C300030914603C901079697FD079633E09595B5
:102C400087953A95E1F72091430330914403829FA1
:102C50008001839F100D929F100D1124C0915E037F
:102C6000D0915F0380915C0390915D030C0F1D1F59
:102C7000892B09F483C0809160030E94BF07809173
:102C80005C0390915D03DC01ED91FC910190F0817A
:102C9000E02D60E40995EE24E394F12C80915C032F
:102CA00090915D030C171D0709F440C0B0E2EB16CC
:102CB000F104A8F00E946D0B809160030E94BF0791
:102CC00080915C0390915D03DC01ED91FC9101909A
:102CD000F081E02D60E40995EE24E394F12C8091DD
:102CE0005C0390915D036991DC01ED91FC91019091
:102CF000F081E02D0995BFEFEB1AFB0ACFCF809151
:102D00005A0390915B03892B31F080917D03909160
:102D10007E030E94E215E0916E03F0916F039081B3
:102D20008091730380958923808374CF0E946D0BFB
:102D300080915C0390915D03892B09F460C0209120
:102D400078033091790340917A0350917B0360E0DE
:102D500074E284EF90E00E942A3420513109410945
:102D6000510956954795379527952093B800DF91DF
:102D7000CF911F910F91FF90EF900895E0916C0318
:102D8000F0916D03808190917203892B80830C17E1
:102D90001D0771F2899120915A0330915B03232B17
:102DA00019F00E94D614F3CF28E030E040E8E0911B
:102DB0006803F091690390917003582F5423D9F060
:102DC0005081952B9083E0916A03F0916B03908181
:102DD00050917103952B9083E0916A03F0916B03FE
:102DE0005081909171039095952390834695215041
:102DF0003109E9F6CCCF508190959523E3CFE0914E
:102E00006E03F0916F03808190917303892B80830F
:102E1000AECF1F93CF93DF93EC01162F8D8D9E8D38
:102E2000892BB1F12DA93EA94FA958AD60E074E2FC
:102E300084EF90E00E942A34205131094109510960
:102E400056954795379527952093B80066EA111156
:102E500067EACE010E9485158D8D9E8D892B41F1EB
:102E600029AD3AAD4BAD5CAD60E074E284EF90E02B
:102E70000E942A342051310941095109569547953C
:102E8000379527952093B800DF91CF911F91089532
:102E90008B8D9C8D892B21F08EAD9FAD0E94E2150C
:102EA000EFA5F8A990818CA9809589238083CECF46
:102EB000EFA5F8A980819CA9892B8083E5CF08958F
:102EC00090E080E008958F929F92AF92BF92EF9230
:102ED000FF920F931F93CF937C018B018091000190
:102EE0008F30B1F08F3F09F455C016950795B801A2
:102EF00090E080E00E94E3088FE0CF911F910F9156
:102F0000FF90EF90BF90AF909F908F900C94250909
:102F1000E7E1F6E0C491C7FDE8CF61E08FE00E94F1
:102F20007008C1114DC0970150E040E068E478EEB0
:102F300081E090E00E94C93349015A0181E0881A7A
:102F40009108A108B10885B5887F836085BD970188
:102F5000220F331FD8010E944C3428EE33E040E0AA
:102F600050E00E942A34C13009F4B4C0C23009F4E0
:102F7000C3C0C111BACF87BC2093A2013093A30173
:102F80004093A4015093A50180916E0082608093CC
:102F90006E00ABCF8FE080930001E7E1F6E0C491D3
:102FA000CF3F09F4A2CFC13009F43DC018F1C230BF
:102FB00009F457C0C7FD99CF61E08FE00E94700807
:102FC000970150E040E0C23009F06DC060E970ED5B
:102FD00083E090E00E94C93349015A0181E0881AD8
:102FE0009108A108B1088091B100887F8360809327
:102FF000B100ADCF14BC15BC84B5826084BD85B56D
:10300000816085BDE2E9FEE0E491F0E0EE0FFF1F94
:10301000E159F14F85919491E7EAFEE0E491E09364
:103020009D01C0E07ACF10928000109281008091C3
:10303000810088608093810080918100816080930D
:103040008100E2E9FEE0E491F0E0EE0FFF1FE159BC
:10305000F14F85919491E7EAFEE0E491E0939C01C1
:103060005CCF1092B0001092B1008091B0008260ED
:103070008093B0008091B10081608093B100E2E95B
:10308000FEE0E491F0E0EE0FFF1FE159F14F859172
:10309000949190930B0280930A02E7EAFEE0E49198
:1030A000E0930C023ACF60E072E18AE790E00E9480
:1030B000C93349015A0181E0881A9108A108B10871
:1030C000C13009F044CF80918100887F8160809376
:1030D00081003DCF909289008092880020939E01CC
:1030E00030939F014093A0015093A10180916F0004
:1030F000826080936F00F9CE8092B30020930D021E
:1031000030930E0240930F02509310028091700092
:10311000826080937000E9CECF93DF93E90120E0D5
:103120000E94C907BE018FE393E0DF91CF910C9419
:1031300051090F931F930E94160900919801109155
:10314000990120919A0130919B01601B710B820BB8
:10315000930B6531710581059105D0F088E00E94DF
:103160001908892BC1F484E0809337020E94160964
:10317000609398017093990180939A0190939B01B9
:103180006093330270933402809335029093360239
:103190001F910F91089583E0E7CFCF92DF92EF92D6
:1031A000FF920F931F93CF93DF93EC016623D1F02F
:1031B000F12CE12C0AE010E020E830E046E350E09A
:1031C00070E060E08FE393E00E948B10D12CC12C63
:1031D000C601DF91CF911F910F91FF90EF90DF908B
:1031E000CF9008958A819B816C0120E8C222DD2462
:1031F00087FD34C0EE24E394F12C0AE010E020E8CF
:1032000030E046E350E070E060E08FE393E00E943E
:10321000970FEA80FB80E094F09441E0E422FF24E1
:1032200008E010E02EE730E047E350E061E070E0B6
:103230008FE393E00E948B100E94E51581E090E0FF
:103240009D838C830E9416096E837F83888799876C
:103250008A819B8180689B838A83BACF0E941609EA
:103260002E813F81AB01421B530B9A0188819981CA
:103270006EE770E00E941937C9010E9419379B015F
:103280008C819D818617970798F47D836C83EA80F3
:10329000FB8051E0E522FF2408E010E047E350E026
:1032A00061E070E08FE393E00E948B100E94E515CF
:1032B00091E080E02C813D812E37310508F490E0CB
:1032C000C92ED82E85CFCF92DF92EF92FF920F9327
:1032D0001F93CF93DF93C82F80919D030E94BF0758
:1032E00080919E0390919F03DC01ED91FC910190F0
:1032F000F081E02D6C2F099580919E0390919F03A2
:103300000E946D0BC0919D030E94BE086B017C0161
:1033100080915E02811165C081E080935E0280939E
:103320005D029FEF90935C0210925B0280935A02C1
:103330008093590280915902CC0FC82BC093590237
:1033400080915802813009F09AC0109258020E9470
:10335000BE086B017C01809159028093BB00809173
:10336000600290916102A0916202B0916302892B88
:103370008A2B8B2BA1F00E94BE0800916002109155
:10338000610220916202309163026C197D098E09FD
:103390009F09061717072807390708F443C08091CB
:1033A000BC0083FDD8CF85EC8093BC000E94BE0892
:1033B0006B017C0180915E02813009F462C08091D2
:1033C0005B02823008F07FC080915B02E8E3F2E0AC
:1033D000A6E6B2E090E0981751F121912D939F5FFE
:1033E000FACF8091600290916102A0916202B09147
:1033F0006302892B8A2B8B2B09F48ACF0E94BE088B
:10340000009160021091610220916202309163028A
:103410006C197D098E099F090617170728073907B8
:1034200008F076CF80915F020E94C70A80E0109278
:1034300065028093640280919E0390919F03DC015A
:10344000ED91FC910284F385E02D0995D82FB0E031
:10345000CB2F80919E0390919F03DC01ED91FC9115
:103460000284F385E02D09958C2B9D2BDF91CF9164
:103470001F910F91FF90EF90DF90CF90089585EE10
:1034800093CF8091600290916102A0916202B0910D
:103490006302892B8A2B8B2B09F48CCF0E94BE08E8
:1034A00000916002109161022091620230916302EA
:1034B0006C197D098E099F09061717072807390718
:1034C00008F078CFAFCF82E081CFCF92DF92EF923A
:1034D000FF9282E00E946319BC0190E080E00E94AC
:1034E00070352AE037ED43EA5AE30E9453366B0108
:1034F0007C0160919B0370919C03603187E27807A7
:1035000091F090E080E00E94703527E137EB41EDCB
:1035100058E30E9453369B01AC01C701B6010E94DB
:1035200053366B017C01C701B601FF90EF90DF902D
:10353000CF900895CF93DF9384E00E946319CBE886
:10354000D3E0BC01990F880B990B0E94723528813A
:1035500039814A815B810E9453362C853D854E8599
:103560005F850E945B34DF91CF910895FF920F93A6
:103570001F93CF93DF930AE812E0C4E0D0E0F80194
:10358000F1908F01CE010E94B333F81621F06F2D18
:10359000CE010E94BB332196CC31D10581F78AE858
:1035A00092E0DF91CF911F910F91FF9008952091AC
:1035B000450330914603C901079697FD079623E01E
:1035C000959587952A95E1F720914303309144031F
:1035D000829FA001839F500D929F500D112470E097
:1035E00060E080915E0390915F030C9413338F929F
:1035F0009F92AF92BF92CF92DF92EF92FF920F9382
:103600001F93CF934C015B016A01C22F0E94D71A0E
:1036100029ED30E041E050E066E170E081E00E9499
:103620008C18EE24E394F12C0BE010E02FE730E04F
:103630004BE050E070E060E08FE393E00E94F60F13
:10364000940140E150E061E070E082E00E948C185B
:10365000950144E250E061E070E081E00E948C1846
:1036600096014EE250E061E070E081E00E948C182B
:103670000E94E515CC23C1F088EE93E0C89FB0010D
:10368000C99F700D1124072E000C880B990BCF9148
:103690001F910F91FF90EF90DF90CF90BF90AF9070
:1036A0009F908F900C94E308CF911F910F91FF9002
:1036B000EF90DF90CF90BF90AF909F908F90089544
:1036C0000E943337FB0101900020E9F73197AF01E9
:1036D000461B570BDC01ED91FC910280F381E02D3C
:1036E0000994CF93DF93BC0182EA92E00E945109D2
:1036F000EC0162E671E082EA92E00E94621B8C0FAC
:103700009D1FDF91CF9108954F925F926F927F92AC
:103710008F929F92BF92CF92DF92EF92FF920F9380
:103720001F93CF93DF93CDB7DEB72A970FB6F894E8
:10373000DEBF0FBECDBFB82E4B0101E00427409184
:1037400097022091930230919402429FC001439FBF
:10375000900D112484369105E8F164E670E00E9432
:1037600019376B01F12CE12C8BE09FE00E94711B5B
:1037700010E023E0B21233C081E090E09C838B83A1
:103780009A82898260E0CE0101960E94CD18892B31
:1037900059F583E00E9419088017910799F361E0B9
:1037A000CE0101960E94CD182A960FB6F894DEBF7E
:1037B0000FBECDBFDF91CF911F910F91FF90EF9082
:1037C000DF90CF90BF909F908F907F906F905F9091
:1037D0004F900895C12CD12C7601C394C5CFB4016C
:1037E00090E080E00E94E3088091A00281FF06C083
:1037F00064E670E08CED95E00E946317809197027B
:103800008823B1F08091930290919402049780F004
:1038100061E085E00E944208C701B6010E94E3080A
:1038200060E085E00E944208C701B6010E94E308FB
:1038300082E08093B8008EE00E94AC086C0169E0E1
:1038400070E080E090E00E94E30861E085E00E9483
:103850004208609193027091940290E080E00E948F
:10386000E3088EE00E94AC084C010E94651A2B010F
:103870003C0160E085E00E94420820E030E04AE739
:1038800054E4C301B2010E9453360E944135709343
:103890009B0260939A02F12CE12C940150E040E0ED
:1038A0002C193D094E095F09A8E2BFE00E94E833E8
:1038B00024E833E040E050E02C193D094E095F094F
:1038C0000E94C93330939D0220939C020E941609E6
:1038D0006B017C018B2D0E9419088017910781F4E0
:1038E0000E9416096C197D098E099F09683E734074
:1038F0008105910528F460E085E00E944208EACF46
:103900000E9416096C197D098E099F09693E734052
:103910008105910518F08BE0809337021C821B8291
:1039200082E390E09A83898360E0CE0101960E9451
:10393000CD18892BC9F38091910290919202019642
:1039400090939202809391020E9416096093330231
:1039500070933402809335029093360287E00E9480
:103960001908892B09F020CF8BE0809337021CCFF8
:10397000CF92DF92EF92FF920F931F93CF93DF933B
:1039800000D000D0CDB7DEB7F82E10E000E060E048
:10399000C8010E94BB330F5F1F4F011584E0180759
:1039A000B1F784E180938A0280EA9FE090939B02C2
:1039B00080939A0288E893E190939D0280939C0201
:1039C00010929F0210929E0283E290E090938C02EC
:1039D00080938B028CE795E190938E0280938D0209
:1039E0008091910290919202FF2011F090E080E08E
:1039F000909392028093910285E090E090939402DC
:103A00008093930284E690E09093960280939502CF
:103A1000109297028091A002816082608093A00240
:103A200082FB882780F9F11080E09091A00280FB52
:103A300092F99093A0020E94B61A88EC99EEAAEF30
:103A4000B8E189839A83AB83BC83FE0131966F0111
:103A500010E000E0F601E1906F01C8010E94B3336D
:103A6000E81621F06E2DC8010E94BB330F5F1F4F77
:103A70000430110579F785EF90E0F11002C088EE6F
:103A800090E00F900F900F900F90DF91CF911F91CA
:103A90000F91FF90EF90DF90CF900C94711B8F925D
:103AA0009F92AF92BF920F931F93CF93DF93CDB7A7
:103AB000DEB7A1970FB6F894DEBF0FBECDBF19A237
:103AC000423008F44AE08E010F5D1F4F842E912C86
:103AD000B12CA12CA50194010E942A34E62FB90132
:103AE000CA01EA3004F5E05DD801EE938D01232B85
:103AF000242B252B79F790E080E0109729F0BD0169
:103B000082EA92E00E94621BA1960FB6F894DEBF93
:103B10000FBECDBFDF91CF911F910F91BF90AF909E
:103B20009F908F900895E95CDFCFCF93DF93BC0126
:103B300082EA92E00E94621BEC0162E671E082EA96
:103B400092E00E94621B8C0F9D1FDF91CF91089520
:103B5000CF93DF93BC0190E080E04AE00E944F1DCC
:103B6000EC0162E671E082EA92E00E94621B8C0F37
:103B70009D1FDF91CF910895AF92BF92CF92DF92B8
:103B8000EF92FF920F931F93CF93DF938C015B0112
:103B90006A010E94D71A81E08093530380935403F3
:103BA000C1E0D0E0D0934C03C0934B03D0934E03BD
:103BB000C0934D03D0935203C0935103D09350034D
:103BC000C0934F03B8018FE393E00E945109EE24A4
:103BD000E394F12C0BE010E02FE730E04BE050E0F5
:103BE00070E060E08FE393E00E94F60F82E0809344
:103BF00053038093540382E090E090934C038093AE
:103C00004B038AE190E090934E0380934D03D09351
:103C10005203C0935103D0935003C0934F03A11498
:103C2000B10489F4B6018FE393E00E945109DF915A
:103C3000CF911F910F91FF90EF90DF90CF90BF90A9
:103C4000AF900C94E515B5018FE393E00E94621BE1
:103C500096014EE250E062E070E081E00E948C1834
:103C6000E6CF0F931F93CF93DF93E90120E00E94EB
:103C7000C907209729F0BE018FE393E00E94621BE1
:103C8000B8018FE393E0DF91CF911F910F910C94D6
:103C900051094F925F926F927F928F929F92AF9253
:103CA000BF92CF92DF92EF92FF920F931F93CF9329
:103CB000DF93CDB7DEB760970FB6F894DEBF0FBEC7
:103CC000CDBF8091A00222EC30E080FF02C029EC41
:103CD00030E041E050E070E060E081E00E948C184C
:103CE0000E949A1A20E030E04AE754E40E945336DA
:103CF00020E030E0A9010E94FE3518160CF096C0B5
:103D00000E949A1A20E030E04AE754E40E945336B9
:103D10000E9441359B018AE0682E712CC901B301D4
:103D20000E941937CB0144E6842E912CB4010E94E5
:103D300019379F938F9358EEA52E53E0B52EC901E6
:103D4000B5010E9419377F936F936BEE462E6EE09C
:103D5000562E5F924F92CE0101966C019F938F93E6
:103D60000E94E62F0EEC10E0960141E050E06CE27C
:103D700070E081E00E94311EEE24E394F12C0BE010
:103D800010E02FE730E04BE050E070E060E08FE3C0
:103D900093E00E94F60F0E94651A20E030E04AE7A7
:103DA00054E40E9453360E9441359B0170930B01ED
:103DB00060930A01CB01B3010E941937CB01B40112
:103DC0000E9419379F938F93C901B5010E9419373B
:103DD0007F936F935F924F92DF92CF920E94E62F74
:103DE00001E01FE0960141E050E06CE570E081E009
:103DF0000E94311E0FB6F894DEBF0FBECDBF609695
:103E00000FB6F894DEBF0FBECDBFDF91CF911F91EB
:103E10000F91FF90EF90DF90CF90BF90AF909F9069
:103E20008F907F906F905F904F9008950E949A1AA4
:103E300020E030E04AE754E40E945336905868CFBF
:103E4000EF92FF920F931F93CF93DF9300D000D098
:103E50001F92CDB7DEB77C010E94D71A0E94491E7F
:103E600023E03FE040E150E066E170E082E00E9444
:103E70008C18970144E250E06AE370E082E00E940F
:103E80008C1880910A0190910B0164E670E00E9409
:103E900019379F938F937F936F938BEE9EE09F9341
:103EA0008F93CE0101967C019F938F930E94E62F02
:103EB00001E01FE0970148E350E06DE370E081E02E
:103EC0000E94311E0E94E5150FB6F894DEBF0FBEAA
:103ED000CDBF0F900F900F900F900F90DF91CF916B
:103EE0001F910F91FF90EF9008958F929F92AF9244
:103EF000BF92CF92DF92EF92FF920F931F93CF93D7
:103F00007C014B015A016901C02F0E94D71AE114AC
:103F1000F10409F04FC00E94491E21E0C11120E0C8
:103F200040E162E082E00E94C907B4018FE393E0C0
:103F30000E94510921E0C13009F020E041E262E035
:103F400082E00E94C907B5018FE393E00E94510906
:103F500021E0C23009F020E042E362E082E00E940A
:103F6000C907B6018FE393E00E94510940E150E098
:103F7000CC2331F042E350E0C13011F441E250E093
:103F8000EE24E394F12C00E110E022E030E070E058
:103F900060E08FE393E00E94970FCF911F910F9104
:103FA000FF90EF90DF90CF90BF90AF909F908F9059
:103FB0000C94E51581E0809353038093540381E0D2
:103FC00090E090934C0380934B0390934E03809327
:103FD0004D03909352038093510390935003809329
:103FE0004F03B7018FE393E00E945109EE24E3945D
:103FF000F12C0BE010E02FE730E04BE050E070E0F8
:1040000060E08FE393E00E94F60F87CFAF92BF92FC
:10401000CF92DF92EF92FF920F931F93CF93DF9394
:10402000CDB7DEB768970FB6F894DEBF0FBECDBF31
:10403000B82E0E94D71A0E94491EEFE3F3E084E0F5
:10404000848B858B1586148684E190E0978786871C
:1040500081E090E0938B828B918B808B8AE8E82EB5
:1040600082E0F82EF70182858F9381858F9383ED0F
:104070009EE09F938F93CE0101966C019F938F9347
:104080000E94E62FB6018FE393E00E94621B2B2D66
:1040900040E268E482E00E94C9076DEE7DE08FE3B4
:1040A00093E00E945109F70180858F9387818F9358
:1040B0008FED9EE09F938F93DF92CF920E94E62F29
:1040C00007ED10E0960144E150E06CE570E081E01E
:1040D0000E94311E20ED30E048E350E070E060E0E7
:1040E00081E00E948C18F70183898F9382898F93D6
:1040F00085EE9EE09F938F935E01F1E1AF0EB11CC0
:10410000BF92AF920E94E62F0EEC10E0950148E3BB
:1041100050E06CE270E081E00E94311EF7012089DE
:104120003189C9016AE070E00E941937CB0164E669
:1041300070E00E9419379F938F93C90168EE73E076
:104140000E9419377F936F938BEE9EE09F938F931E
:10415000DF92CF920E94E62F01E01FE0960148E334
:1041600050E06CE570E081E00E94311E0E94E51590
:104170000FB6F894DEBF0FBECDBF68960FB6F894A9
:10418000DEBF0FBECDBFDF91CF911F910F91FF908A
:10419000EF90DF90CF90BF90AF90089585ED809322
:1041A000BC008091600290916102A0916202B09186
:1041B00063020796A11DB11D23E0B695A7959795BB
:1041C00087952A95D1F72091BC0024FD03C0109259
:1041D0005E02089540916002509161026091620216
:1041E00070916302452B462B472B69F30097A1057D
:1041F000B10541F02AE22A95F1F700C00197A10923
:10420000B109E1CF80915F020C94C70A1F920F920F
:104210000FB60F9211242F933F938F939F93AF93D9
:10422000BF9380912B0290912C02A0912D02B0910E
:104230002E0230912A0223E0230F2D3758F50196E4
:10424000A11DB11D20932A0280932B0290932C0272
:10425000A0932D02B0932E0280912F0290913002F4
:10426000A0913102B09132020196A11DB11D80933F
:104270002F0290933002A0933102B0933202BF918B
:10428000AF919F918F913F912F910F900FBE0F9003
:104290001F90189526E8230F0296A11DB11DD2CFBD
:1042A0001F920F920FB60F9211242F933F934F93AB
:1042B0005F936F937F938F939F93AF93BF93EF938E
:1042C000FF93E0910301F09104010995FF91EF91B3
:1042D000BF91AF919F918F917F916F915F914F911E
:1042E0003F912F910F900FBE0F901F9018951F9226
:1042F0000F920FB60F9211242F933F934F935F931A
:104300006F937F938F939F93AF93BF93EF93FF939D
:10431000E0910101F09102010995FF91EF91BF91A8
:10432000AF919F918F917F916F915F914F913F914D
:104330002F910F900FBE0F901F9018951F920F9204
:104340000FB60F9211242F933F934F935F936F9368
:104350007F938F939F93AF93BF93EF93FF9380913E
:104360000D0290910E02A0910F02B0911002892BC4
:104370008A2B8B2BD1F190910C02E0910A02F091E3
:104380000B0280818927808380910D0290910E021B
:10439000A0910F02B0911002181619061A061B06FA
:1043A0009CF480910D0290910E02A0910F02B091A9
:1043B00010020197A109B10980930D0290930E029A
:1043C000A0930F02B0931002FF91EF91BF91AF91B4
:1043D0009F918F917F916F915F914F913F912F911D
:1043E0000F900FBE0F901F901895809100010E94B2
:1043F0002509EACF1F920F920FB60F9211242F9327
:104400003F934F935F936F937F938F939F93AF935C
:10441000BF93EF93FF9382EA92E00E94F309FF912A
:10442000EF91BF91AF919F918F917F916F915F912C
:104430004F913F912F910F900FBE0F901F901895A5
:104440001F920F920FB60F9211242F938F939F9369
:10445000EF93FF93E091B202F091B3028081E0917B
:10446000B802F091B90282FD1BC090818091BB021D
:104470008F5F8F732091BC02821741F0E091BB02E5
:10448000F0E0EE55FD4F958F8093BB02FF91EF91C9
:104490009F918F912F910F900FBE0F901F901895A5
:1044A0008081F4CF1F920F920FB60F9211242F9399
:1044B0003F934F935F936F937F938F939F93AF93AC
:1044C000BF93EF93FF938091B900887F803609F402
:1044D0004AC0F0F5883209F4A7C018F5803109F414
:1044E0009BC0B8F4882309F4F9C0883009F494C05B
:1044F000FF91EF91BF91AF919F918F917F916F91BC
:104500005F914F913F912F910F900FBE0F901F9091
:104510001895883109F488C0803251F780935C0285
:1045200014C0803409F49DC040F48033B9F388335B
:10453000F9F680935C0285ECB0C0803509F485C043
:10454000883509F496C0883499F60E94CE20D0CFE1
:10455000883909F48CC038F5883729F050F488364A
:1045600011F0803729F683E080935E0210920902F1
:1045700057C0883809F47BC0803919F0803809F0B9
:10458000B7CF80910902803208F071C0E091090232
:1045900081E08E0F809309028091BB00F0E0E7512B
:1045A000FE4F80833DC0803B39F0E0F4803A09F44F
:1045B00079C0883A09F09CCF84E080935E02109223
:1045C000E8011092E701E0911202F09113020995BF
:1045D0008091E70181110FC081E08093E701109283
:1045E000C70109C0803C09F4A6CF883C09F4A3CFD9
:1045F000883B09F07DCFE091E80181E08E0F809348
:10460000E801F0E0E953FE4F80818093BB00909178
:10461000E8018091E70129C0809159028093BB0095
:1046200085EC8093BC0064CF90915B0280915A022C
:10463000981758F5E0915B0281E08E0F80935B0242
:10464000F0E0E85CFD4F8081E9CFE0915B0281E022
:104650008E0F80935B028091BB00F0E0E85CFD4F21
:10466000808390915B0280915A029817C8F285E886
:10467000D8CFE0915B0281E08E0F80935B02809146
:10468000BB00F0E0E85CFD4F808380915D0281110A
:104690005CCF81E08093580284EA8093BC00109242
:1046A0005E0226CF85EC8093BC0010925E02809162
:1046B0000902803230F4E0910902F0E0E751FE4F48
:1046C00010826091090270E0E0911402F0911502ED
:1046D00089EE91E00995109209020ACF10925C02CE
:1046E00034CFE2EAF2E01382128248EE53E060E057
:1046F00070E0448355836683778386E191E09183FC
:10470000808385EC90E09587848784EC90E09787A0
:10471000868780EC90E0918B808B81EC90E0938B8E
:10472000828B82EC90E0958B848B86EC90E0978B6B
:10473000868B118E128E138E148EAFE7B3E0139614
:104740001C921E92129714964D935D936D937C93D9
:10475000179788E291E011969C938E93EBE8F3E033
:10476000148615861686178680E197E2918B808BDA
:1047700080E4828BB48BA38B10821182128213820D
:10478000108611861286138614821582168217826D
:10479000EFE3F3E01382128220E830E035832483D4
:1047A00080E490E097838683318720879387828790
:1047B000168A158614861786168681E0858B848B6B
:1047C0002FEF3FEF338B228B318B208B878B108E1B
:1047D000128E118E8AE391E091838083148E138E62
:1047E000B68FA58F10A2178E8FEF84A385A386A303
:1047F00087A384E080A780E095E3ACE0B0E085ABE0
:1048000096ABA7ABB0AF80EA96E8A1E0B0E081AF8D
:1048100092AFA3AFB4AF80E586AF17AE0895CF9344
:10482000DF93CDB7DEB764970FB6F894DEBF0FBE47
:10483000CDBF789484B5826084BD84B5816084BD29
:1048400085B5826085BD85B5816085BD80916E002E
:10485000816080936E00109281008091810082605F
:10486000809381008091810081608093810080919C
:1048700080008160809380008091B100846080938B
:10488000B1008091B00081608093B00080917A0087
:10489000846080937A0080917A00826080937A00AD
:1048A00080917A00816080937A0080917A0080689C
:1048B00080937A001092C100E091B202F091B302AD
:1048C00082E08083E091AE02F091AF021082E0912D
:1048D000B002F091B10280E180831092BA02E091BF
:1048E000B602F091B70286E08083E091B402F091C5
:1048F000B502808180618083E091B402F091B502BD
:10490000808188608083E091B402F091B50280815B
:1049100080688083E091B402F091B50280818F7D40
:10492000808361E085E00E94700861E08FE00E9472
:10493000700860E082E00E94700860E088E00E94F9
:10494000700862E086E00E94700862E087E00E94E2
:10495000700860E083E00E94700861E086E00E94D9
:10496000420861E087E00E94420880915E039091D6
:104970005F03892B11F10E94D71A209145033091D2
:1049800046038091430390914403213231050CF09A
:10499000B7C0B9016052710977FF02C06F5F7F4FE6
:1049A000759567958357910997FD019600E210E090
:1049B00023E730E04AE256E0B6C02091450330914B
:1049C0004603C901079697FD0796B3E0959587952D
:1049D000BA95E1F72091430330914403AC01429F23
:1049E000C001439F900D529F900D11240E94E3310E
:1049F00090935F0380935E03892B09F0BCCF0E94E4
:104A0000D71A0E94E51589E998E1909302018093F5
:104A10000101809169008C7F826080936900E89A2F
:104A20000E9416096093330270933402809335021A
:104A30009093360286E00E941908892B09F056C22D
:104A400085E08093370290E080E00E94B333898351
:104A500081E090E00E94B3338A8382E090E00E947C
:104A6000B3338B8383E090E00E94B3338C838981DE
:104A70009A81AB81BC81883C994EAA4FB84109F418
:104A800037C281E00E94B81C6091A00266956270F6
:104A90008FE393E00E948B0C0E94D71A0E94E515C9
:104AA00023EF3AE041E050E061E070E081E00E94F5
:104AB0008C182DED3AE040E150E061E070E081E0DB
:104AC0000E948C182AEC3AE044E250E061E070E089
:104AD00081E00E948C180E94E5150BE110E086E051
:104AE0000E941908892B09F415C20150110909F413
:104AF00011C26AE070E080E090E00E94E308EFCF2E
:104B0000B9016054710977FF02C06F5F7F4F7595DF
:104B100067958255910997FD019600E410E022E522
:104B200030E04AE058E0959587950E94711182E047
:104B30008093610380915C0390915D03892B09F45C
:104B4000DFC08CE3809360031092650210926402D0
:104B500010928702109286020E94A90A82E299E0CE
:104B6000909313028093120283E299E090931502CE
:104B7000809314028091670387FD1EC061E00E944C
:104B8000700861E0809167030E94420861E070E074
:104B900080E090E00E94E30860E0809167030E945B
:104BA00042086AE070E080E090E00E94E30861E083
:104BB000809167030E94420880915C0390915D039D
:104BC000892B09F45CC120917403309175034091E5
:104BD00076035091770360E074E284EF90E00E94E6
:104BE0002A34205131094109510956954795379585
:104BF00027952093B80064E086E296E00E94DD14D9
:104C00006091450361508FE393E00E94851564E055
:104C100082E296E00E94DD148091610360E18130C0
:104C200009F064E18FE393E00E94851564E08EE172
:104C300096E00E94DD148FE880937C03809143030B
:104C4000909144038038910509F032C18091450369
:104C5000909146038034910509F03AC18091610337
:104C6000813009F023C18FE980937C0312E16AED62
:104C70008FE393E00E948515612F8FE393E00E94FC
:104C8000851561E88FE393E00E94851560917C03B0
:104C90008FE393E00E94851569ED8FE393E00E9416
:104CA00085158091610362E2813009F061EF8FE345
:104CB00093E00E94851566E088E196E00E94DD148D
:104CC00080915C0390915D03892B09F405C12091CB
:104CD00078033091790340917A0350917B0360E02F
:104CE00074E284EF90E00E942A3420513109410996
:104CF000510956954795379527952093B8007FCE53
:104D000061E0809165030E94700861E08091660314
:104D10000E94700880916503082E000C990BFC011D
:104D2000ED57F14FE491F0E0EE0FFF1FE159F14F25
:104D30002591349130936D0320936C03FC01E85668
:104D4000F14FE491E093720380916603082E000C0A
:104D5000990BFC01ED57F14FE491F0E0EE0FFF1FCE
:104D6000E159F14FA591B491B0936F03A0936E03F5
:104D7000FC01E856F14FE491E09373038C91E82B2A
:104D8000EC9380915A0390915B03892B09F434C012
:104D90001FB7F89480911102811127C0EDE8FEE061
:104DA0008491E2EAFEE09491E82FF0E0EE0FFF1F1D
:104DB000EB59F14FA591B491EC91E92321F461E015
:104DC0008AE00E94420861E08AE00E9470088CB587
:104DD00080618CBD8CB580648CBD61E08DE00E94EB
:104DE000700861E08BE00E947008809111028F5F73
:104DF000809311021FBFBECE61E0809163030E94C9
:104E0000700861E0809164030E94700880916303E0
:104E1000082E000C990BFC01ED57F14FE491F0E0E6
:104E2000EE0FFF1FE159F14F259134913093690343
:104E300020936803FC01E856F14FE491E09370037E
:104E400080916403082E000C990BFC01ED57F14F83
:104E5000E491F0E0EE0FFF1FE159F14FA591B491FD
:104E6000B0936B03A0936A03FC01E856F14FE49101
:104E7000E09371038C91E095E823EC937BCE8091D5
:104E80005A0390915B03892B31F080917D039091BF
:104E90007E030E94E215E0916E03F0916F03908112
:104EA00080917303809589238083A5CE8FECDCCE1F
:104EB0008036910569F480914503909146034097AF
:104EC00039F480916103813029F480E180937C037F
:104ED00012E0CDCE8FEAFACFE0916E03F0916F032E
:104EE000808190917303892B808389CD80E0A9CD47
:104EF000FAE8EF2EF2E0FF2E04E010E0C8010E9475
:104F0000B333F70181937F010F5F1F4F0C31110500
:104F1000A9F7BACD86E00E941908892BD9F30E941F
:104F2000D71A0E94E51587E00E941908892B09F01D
:104F300045C00E94D71A0E94E5152BE43BE041E0F2
:104F400050E061E070E081E00E948C1823E43BE0D7
:104F500040E150E061E070E081E00E948C1821E3C4
:104F60003BE04AE150E061E070E081E00E948C1893
:104F70002CE13BE044E250E061E070E081E00E941F
:104F80008C1827E03BE04EE250E061E070E081E009
:104F90000E948C180E94E51587E00E941908892B51
:104FA000D9F368EC70E088EE93E00E94631768EE36
:104FB00073E080E090E00E94E308F3CF88E195E1A0
:104FC00090930B0180930A0168EC70E088EE93E007
:104FD0000E94631768EC70E080ED97E00E94631711
:104FE00068EC70E088EB9BE00E94631768EC70E06F
:104FF00080ED97E00E94631762E17CE082EA92E034
:105000000E94510980919A0290919B020E94A81DD2
:1050100060E07CE082EA92E00E94510980919C026B
:1050200090919D020E94A81D6EEE7BE082EA92E0C4
:105030000E94510980918B0290918C020E94A81DC0
:105040006CED7BE082EA92E00E945109809191022E
:10505000909192020E94A81D6AEC7BE082EA92E0A5
:105060000E94510960918A0270E090E080E04AE07D
:105070000E944F1D62E671E082EA92E00E94621B8C
:1050800068EB7BE082EA92E00E94510980919502F0
:10509000909196020E94A81D66EA7BE082EA92E067
:1050A0000E9451096091970270E090E080E04AE030
:1050B0000E944F1D62E671E082EA92E00E94621B4C
:1050C00064E97BE082EA92E00E9451098091A002AB
:1050D00080FF53C085E691E00E94951D62E87BE069
:1050E00082EA92E00E9451098091A00281FF48C0AB
:1050F00085E691E00E94951D60E77BE082EA92E000
:105100000E9451098091A00282FF3DC08CE691E08F
:105110000E94951D6EE57BE082EA92E00E945109B3
:1051200080919302909194020E94A81D10926502B2
:105130001092640210928702109286020E94A90ABD
:1051400082E299E0909313028093120283E299E045
:10515000909315028093140280919D030E94BF07D3
:1051600080919E0390919F030E946D0B882371F0A4
:105170008AE791E00E94951DFFCF88E691E0ACCFD1
:1051800088E691E0B7CF83E791E0C2CFF12C01E050
:1051900010E0812C912C60E8A62E69E3B62E75E014
:1051A000E72EEAE0DE2EB801660F771F653F710536
:1051B00008F45CC090E080E00E9470352DEB37E38E
:1051C00046E855E30E9453364B015C0181E053E011
:1051D0005F1508F45DC0811110C0053F110518F37B
:1051E000B80190E080E00E9470352DEB37E346E88F
:1051F00055E30E9453364B015C012AE037ED43E250
:105200005CE3C501B4010E9453369B01AC016CEA1A
:1052100075EC87EA9BE30E94C8346B017C0120E0B7
:1052200030E0A9010E94FE3520E030E040E05FE37D
:1052300087FD5AC0C701B6010E945C340E943A350E
:105240006B017C01C11480E8D806E104F10408F484
:1052500050C0A5019401C501B4010E945C344B010A
:105260005C01F694E794D794C794ECCFE09EB0012C
:10527000E19E700D1124653F710508F09BCFA801D8
:10528000D49E8001D59E100D1124F39480E09FCF11
:105290008111B3CF10928B0310928C0310928D0367
:1052A00010928E0380E00E946319917FBC017860A8
:1052B00080E00E94540C33ED232E3EE0332EFE019D
:1052C00031967F0124E6A22EB12C8AE0C82ED12C83
:1052D00092EC892E9EE0992E809137028530C1F59F
:1052E00089E0809309015EC1C701B6010E945B3469
:1052F000A5CF80928B0390928C03A0928D03B092E5
:105300008E03B60185E00E94540C20E030E040E0BE
:1053100057E460918B0370918C0380918D03909181
:105320008E030E945336609393037093940380938B
:105330009503909396038AE097EDA3E2BCE38093F4
:105340008F0390939003A0939103B0939203AACFFD
:1053500086E00E9419088C010E94160940901702ED
:10536000509018026090190270901A026419750921
:1053700086099709653171058105910520F177242A
:1053800073940115110509F0712C8091160278169D
:10539000D1F082E0012B09F481E0809337020E9472
:1053A0001609609317027093180280931902909364
:1053B0001A02609333027093340280933502909303
:1053C0003602709216024090330250903402609080
:1053D0003502709036020E941609F4EC5F0EF9E077
:1053E0006F1E711C461657066806790638F48091C0
:1053F0000901863019F086E0809337020E94160971
:1054000000910501109106012091070130910801DA
:10541000601B710B820B930B613D774081059105F9
:1054200010F10E94160960930501709306018093A4
:1054300007019093080180910A0190910B0120913E
:105440008B0230918C028217930718F427E0209387
:10545000370220918D0230918E022817390718F4F7
:1054600088E0809337020E94160900911B02109178
:105470001C0220911D0230911E02601B710B820BD9
:10548000930B613177428105910508F45FC00E945A
:10549000160960931B0270931C0280931D02909367
:1054A0001E0281E10E94AC08BC01990F880B990B88
:1054B0000E94723520E030E040E85AE30E94533603
:1054C0002B013C01AC019B0160E070E080E89FE3B0
:1054D0000E945B349B01AC01C301B2010E94C8343D
:1054E00020E030E44CE156E40E94533620E030E402
:1054F0004CE156E40E94C8340E940B362DEC3EE687
:1055000046E859E30E9453362FE03FEC4BE55BE35E
:105510000E945C349B01AC0160E070E080E89FE396
:105520000E94C83423E333E948E853E40E945B3423
:1055300020E030E040E05FE30E945C340E944135AF
:1055400060931F02623410F010923702809137028C
:10555000873059F1F0F4823009F439C0863001F116
:10556000E0910901EF3008F044C0F0E0E654F54D59
:105570000C942D372B2B022C0D2C892C062DF72D5E
:10558000442B922BBE2B5F2E712EE82E502FA92F6D
:10559000EC2A8930B1F078F08B3011F78EE0A1CE93
:1055A0001092090110923702DBCF80912502811100
:1055B000F9CF86E096CE809125028111F3CF87E066
:1055C00090CE809125028111EDCF88E08ACE809126
:1055D00009018B3039F7C4CF87E00E941908892B65
:1055E00009F44DC080912502882399F189E08093C8
:1055F00009010E94160900912602109127022091AC
:10560000280230912902601B710B820B930B6136CB
:105610007A4E8105910580F00E941609609326025A
:105620007093270280932802909329020E94B61A51
:1056300086E59EE00E94711B80E090E0892B09F4D2
:105640004BCE0E94DF09882309F43FCE0E94000060
:1056500039CE81E0CCCF80913702813039F480910E
:105660002502882379F089E08093090120E044E253
:105670005CE067E37CE08CE49CE00E94F71A109207
:105680003702B7CF81E0F0CF80913702813041F40B
:1056900080912502882309F443C089E080930901A1
:1056A00080910A0190910B01B5010E9419379F93D7
:1056B0008F937F936F938BEE9EE09F938F93FF92D8
:1056C000EF920E94E62F87E59CE00E94201F0FB614
:1056D000F894DEBF0FBECDBF412C512C320186E0C5
:1056E0000E941908892B59F20E941609698B7A8B3E
:1056F0008B8B9C8BDC01CB0184199509A609B7091A
:10570000803D9740A105B10550F368EC70E088EE4C
:1057100093E00E94631749885A886B887C88DFCFA2
:1057200081E0BCCF80913702813039F4809125022D
:10573000882311F189E08093090180910A019091F9
:105740000B01B5010E9419379F938F937F936F933D
:105750008BEE9EE09F938F93FF92EF920E94E62F35
:1057600081E69CE00E94201F109237020FB6F89449
:10577000DEBF0FBECDBF3DCF81E0DDCF80913702D0
:10578000813039F4809125028823D1F189E080931A
:1057900009010E94D71A0E94491E80911F021F9280
:1057A0008F9389ED9EE09F938F93FF92EF920E94DB
:1057B000E62F0CE61CE0970140E150E06AE070E063
:1057C00082E00E94311E2FE73CE044E250E06AE0B4
:1057D00070E082E00E948C182EE63CE048E350E046
:1057E0006DE370E081E00E948C180E94E515109234
:1057F00037020F900F900F900F900F900F90F9CEEF
:1058000081E0C5CF82E080930901109225021092B9
:10581000210280E00E940620ECCE83E00E9419085D
:10582000892BD9F18091A00280FF37C0809120029E
:1058300081111CC081E0809320020E94062080918B
:10584000A00281FF06C064E670E088EE93E00E944B
:10585000631760918A0254E6659FB001112440E00D
:1058600083E00E94841B80E00E9406208091370222
:10587000813011F583E0809309011092210210928A
:10588000370200E029E83CE044E95CE06DEF7CE0B1
:1058900090E080E00E94751FACCE87E00E9419085E
:1058A000892B39F441E068EC70E087E00E94841BAA
:1058B000DDCF10922002DACF80913702833029F0B9
:1058C00080913702843009F0A4CF20913702809173
:1058D000930290919402233089F4209195023091A3
:1058E00096028217930718F49C012F5F3F4F309365
:1058F000940220939302109237028BCF823091054D
:1059000010F482E090E001979093940280939302C8
:10591000F2CF80913702813009F057C084E0809344
:1059200009018091210280932202811110C000E0C0
:105930002CED3CE047EE5CE062EF7CE08DEF9CE01C
:105940000E94751F109237021092210252CE8130B0
:1059500001F580918B0290918C02B6010E9419375B
:105960009F938F937F936F9386EF9EE09F938F9388
:10597000FF92EF920E94E62F44EC5CE0B7018AECC4
:105980009CE00E94BC1D0FB6F894DEBF0FBECDBFD9
:10599000D9CF8230B9F6809197021F928F938DEC08
:1059A0009EE09F938F93FF92EF920E94E62F4FE924
:1059B0005CE0B7018FEA9CE00E94BC1D0F900F9045
:1059C0000F900F900F900F90BDCF809137028330D2
:1059D00029F080913702843009F00BCE9091370284
:1059E00080912102943061F4882341F081508093AA
:1059F0002102109237020091210244CF82E0F7CFBA
:105A0000823011F08F5FF3CF80E0F1CF80913702C9
:105A1000813009F044C0909122029111ECC085E0E0
:105A200080930901809121028093230281110FC08C
:105A30008091A0024FE35DE080FD02C048E35DE09D
:105A400070E060E08AE49DE00E94BC1D7BCF813065
:105A5000B1F480918A0290E0B6010E9419379F93B9
:105A60008F937F936F939F928F92FF92EF920E94FA
:105A7000E62F4FE15DE0B70187E29DE082CF823003
:105A800009F060CF8091A0024BE05DE080FD02C094
:105A900047E05DE070E060E08EE09DE0D5CF809172
:105AA0003702833029F080913702843009F0A1CD8C
:105AB00090912202911121C0209137028091210200
:105AC0002430A1F4882381F0815080932102009139
:105AD00021022CED3CE047EE5CE062EF7CE08DEFD4
